:08000000803102288731FD2F39
:1004BA0082317E2224001615080082317E22240011
:1004CA001614080082317E22240096140800F100D6
:1004DA0071088231862208003830210099009A0179
:1004EA0098010800F00082317E22700824009100F1
:1004FA000800240016081F39031D7E2A141D08004F
:10050A007E2AF0002000111E872A700823009A0014
:10051A00080083315523823182317122823182313E
:10052A0097220800083023009F0090309D00243055
:10053A009E0056309B009C01080021008E150E1665
:10054A0080302400940028309500960131309200C2
:10055A00080023009D162000911EB02A23009D1C2E
:10056A00B82A9D139D1719080800F100F0013A30C6
:10057A0071020318C62A30307102031CC62AF00120
:10058A00F00A700C0800F300F201731CD02A7008FC
:10059A00F1007108F2070310F00D0310F30C730851
:1005AA00031DCA2A72080800F200823162228231CF
:1005BA00D0308231772282317208823177228231B9
:1005CA00710882317722823182315D2208008231BC
:1005DA007E2282312400961582317E2282312400C5
:1005EA001108F0007008F10082317E22240096166C
:1005FA00161671080800F401F501701C082B720820
:10060A00F4077308F53D0130F235F30D890B092B18
:10061A000130F136F00C890B0E2B70087104031DA2
:10062A00022B7508F1007408F0000800F700F801C1
:10063A007708F4000430F436890B202B74080F393C
:10064A00F5007508F8000F307705F4000A30F50058
:10065A007508F00078088231C8227407F600760817
:10066A00F80078080800F300823162228331D03022
:10067A008231772283317308823177228331823142
:10068A0067228331D1308231772283318231EC2261
:10069A008331F2007208F40082315D227408080086
:1006AA0022008D0108302400900022008C010730BE
:1006BA0023009000220090018F018E013F30230019
:1006CA008C0030308D00EF308F00F03024008D0028
:1006DA00EF3021008F000F309000FF308D00BF30C7
:1006EA008E00FF308C00951722009D0108007808C3
:1006FA0079040319A32BFD01FD0AF91B8E2B013086
:10070A00F835F90D890B852B0130FC007C08FD07B3
:10071A00822B79087B02031D942B78087A02031C2A
:10072A009A2B7808FA027908FB3B0130F936F80C63
:10073A00890B9B2B0130FD02031D8E2B7B08F900D0
:10074A007A08F8000800F501F60170087104031927
:10075A00D72BF701F70AF11BBC2B0130F035F10D4D
:10076A00890BB32B0130F4007408F707B02B013062
:10077A00F535F60D890BBD2B71087302031DC72BC6
:10078A0070087202031CCE2B7008F2027108F33B48
:10079A0075140130F136F00C890BCF2B0130F702BA
:1007AA00031DBC2B7608F1007508F0000800200034
:1007BA00BA00BC01BD013D08803AB8008030380259
:1007CA00031DE92B02303C020318362C8231AE227B
:1007DA0083312000B8003808BE0030303E02031CC6
:1007EA00132C3A303E020318132C3C083D04031D17
:1007FA000C2C3E08D03E0F39B8000330B835FF3E06
:10080A00031D032C3835B9003908BB00262C3E08D5
:10081A00D03E0F39B8003808BB04262CFF30BC0084
:10082A00FF30BD006430A0008A30A1008531E9257F
:10083A00833125302000A0008A30A1008531E925C6
:10084A00833101302000BC070030BD3D3D08803AAD
:10085A00B80080303802031D342C02303C02031CDD
:10086A00EB2B20003B08B8003808F1003A08823127
:10087A00D92220003B08080082318E22843182313D
:10088A00A222843120000D183E2D8230C000DD30B6
:10089A00BF00BF0B4E2CC00B4E2C003220000D1C8B
:1008AA00532C22000F16A2302000A0008A30A1008B
:1008BA008531E925843105302000A0008A30A10065
:1008CA008531E92584312000CC0100308331DC23D5
:1008DA0084312000BF003F08CC005930A000893085
:1008EA00A1004C08BF00C0013F08A2004008A300B5
:1008FA008531E925843145302000A0008A30A100E5
:10090A008531E925843101308331DC2384312000AB
:10091A00BF003F08CC007D30A0008930A1004C0800
:10092A00BF00C0013F08A2004008A3008531E925A5
:10093A008431BD302000A0008830A1008531E9252E
:10094A00843102308331DC2384312000BF003F0828
:10095A00CC00E430A0008930A1004C08BF00C001DF
:10096A003F08A2004008A3008531E92584311230EE
:10097A002000A0008830A1008531E92584310330A8
:10098A008331DC2384312000BF003F08CC00E830EB
:10099A00A0008830A1004C08BF00C0013F08A20097
:1009AA004008A3008531E9258431A0302000A00049
:1009BA008930A1008531E925843104308331DC2373
:1009CA0084312000BF003F08CC00C230A00089302B
:1009DA00A1004C08BF00C0013F08A2004008A300C4
:1009EA008531E92584318E302000A0008830A100AD
:1009FA008531E925843105308331DC2384312000B7
:100A0A00BF003F08CC003430A0008930A1004C0858
:100A1A00BF00C0013F08A2004008A3008531E925B4
:100A2A0084315F302000A0008830A1008531E9259B
:100A3A00843106308331DC2384312000BF003F0833
:100A4A00CC00DA30A0008A30A1004C08BF00C001F7
:100A5A003F08A2004008A3008531E925843122001D
:100A6A000F12BE302000A0008A30A1008531E9258E
:100A7A0084311B302000BF003F08CB000030833197
:100A8A003823843183311B2384312000BF003F087F
:100A9A00C500013083313823843183311B238431EB
:100AAA002000BF003F08C60002308331382384315A
:100ABA0083311B2384312000BF003F08C700043064
:100ACA0083313823843183311B2384312000BF00D2
:100ADA003F08C800053083313823843183311B2312
:100AEA0084312000BF003F08C90006308331382313
:100AFA00843183311B2384312000BF003F08CA00A0
:100B0A000530A0008B30A1004B08BF00C0013F0890
:100B1A00A2004008A3008531E92584310330200072
:100B2A00C1000830C0007830BF00BF0B9A2DC00B3F
:100B3A009A2DC10B9A2D83302000A0008A30A10083
:100B4A004708BF00C0013F08A2004008A3004608AA
:100B5A00C100C2014108A4004208A5004508C3001B
:100B6A00C4014308A6004408A7008531E925843159
:100B7A000F302000A0008930A1004808BF00C00142
:100B8A003F08A2004008A3004908C100C201410869
:100B9A00A4004208A5004A08C300C4014308A600ED
:100BAA004408A7008531E925843117302000C100A7
:100BBA00D530C0002B30BF00BF0BE12DC00BE12D9B
:100BCA00C10BE12D0000472C22302000A800280884
:100BDA00B10020002108A9002008A800A00A0319D2
:100BEA00A10A28088400290885000008AA002A0802
:100BFA00B7003708031908002530370603190A2EEB
:100C0A00370882316C228531EE2D2000B501B601FC
:100C1A00B401142E34150130A0070030A13D20087C
:100C2A008400210885000008303A03190F2E1D2E72
:100C3A00200884002108850000088231BA22853103
:100C4A00031CA42E2000B501B6010A30F0000030C2
:100C5A00F10020003608F3003508F2008331002342
:100C6A00853171082000B6007008B500200884009C
:100C7A00210885000008D03EA800FF300318003084
:100C8A00A9002808B5072908B63D0130A007003099
:100C9A00A13D200884002108850000088231BA227B
:100CAA008531031CA42E2A2EB417C22E36082F0211
:100CBA00031D612E35082E020318682E2E08B50270
:100CCA002F08B63B6A2EB501B601FF302000B507E2
:100CDA00FF30B63D350A0319360A0319852E20302E
:100CEA0082316C2285316A2E2D088600870101081F
:100CFA0082316C22853101302000A8002808AD0716
:100D0A000130AE020030AF3B2E0A031D792E2F0AA6
:100D1A000319EE2D792E3108860087010108A800F3
:100D2A002808B7000230A8002808B1073730A80001
:100D3A002808AD000130AE000030AF005B2E200065
:100D4A002108A9002008A800A00A0319A10A280856
:100D5A008400290885000008B700003A0319FC2F0F
:100D6A00633A0319902E073A0319C22E0D3A031952
:100D7A00C22E113A0319592E9B2E2000B41BDC2EC9
:100D8A00310886008701403FB200413FB30002307C
:100D9A00A8002808B107B31F2C2F0330A800280881
:100DAA00B404B209B309B20A0319B30A2C2F3108E1
:100DBA0086008701403FB200413FB3000230A800DD
:100DCA002808B1072C2FB701B70A053037060319CF
:100DDA00352F3708A800A901A835A90D0030280722
:100DEA0084008830293D8500003FAA00013FAB00FE
:100DFA002B083302031D032F2A083202031C352F46
:100E0A000130A8002808B707EA2EB701B70A04304C
:100E1A0037060319352F3708A800A901A835A90DE7
:100E2A000A30280784008830293D8500003FAA003F
:100E3A00013FAB002B083302031D252F2A0832027B
:100E4A00031C352F0130A8002808B7070C2F3408D7
:100E5A008039003A0319E82E803A03190A2F352FF0
:100E6A00350836040319412F340803390319412F71
:100E7A00FF30B507FF30B63D3708A800A901A81B07
:100E8A00A9032908803AAA003608803A2A02031DD3
:100E9A00502F3508280203185D2F20003708A800B4
:100EAA00A901A81BA9032808B5022908B63B602F87
:100EBA002000B501B601341D792F3408033903190E
:100ECA006A2F2D3082316C22853120003508360494
:100EDA000319922F303082316C228531FF30200085
:100EEA00B507FF30B63D6B2F3508360403198A2F34
:100EFA00203082316C228531FF302000B507FF3067
:100F0A00B63D35083604031D7D2F3408033903190D
:100F1A00922F2D3082316C22853120003708A800AB
:100F2A002808B000EA2F0A30F8000030F90030082B
:100F3A00A800A901A835A90D003028078400883027
:100F4A00293D8500003FF000013FF1003308F3001E
:100F5A003208F2008331A82385317108FB0070083A
:100F6A00FA0083317C2385317808303E2000AA00BC
:100F7A002A08E52F3008A800A901A835A90D0A30CA
:100F8A00280784008830293D8500003FF000013F92
:100F9A00F1003308F3003208F2008331A8238531C7
:100FAA0070080F392000AA002A08AC002C08F43E69
:100FBA0084008A300318013E85000008A80028082A
:100FCA00B700370882316C228531FF302000A80033
:100FDA002808B007300A0319EE2D34088039003A80
:100FEA000319982F803A0319BF2FE62FE62F08001E
:100FFA0020008431412C013400340A340034643432
:10100A000034E83403341034273401340034103403
:10101A00003400340134003410340D340A342034DE
:10102A0045346E34763469346534203465346C342E
:10103A0020346434693461342034643465342034AF
:10104A006C3461342034733465346D3461346E34F5
:10105A00613420347334693465346E3464346F34E3
:10106A00203464346F346D3469346E3467346F34C9
:10107A0020343034313420347934203453346134D8
:10108A006234613464346F342034303437342E346B
:10109A00203445346A3420344D3461347234743423
:1010AA00653473343D3420343034333420340D34D1
:1010BA000A3400340D340A34203445346E3476341C
:1010CA0069346534203465346C3420346E347534B4
:1010DA006D34653472346F342034643465346C345E
:1010EA0020346134F1346F342E34203445346A3478
:1010FA0020343134363420347034613472346134FB
:10110A002034323430343134363420340D340A3415
:10111A0000340D340A34203445346E34763469345C
:10112A006534203465346C3420346E3475346D344F
:10113A00653472346F342034643465346C3420344A
:10114A006D34653473342E34203445346A34203493
:10115A00303435342034703461347234613420349C
:10116A006D34613479346F3420340D340A340034E8
:10117A000D340A34203445346E3476346934653497
:10118A0020346C3461347334203448346F3472340C
:10119A0061347334203465346E34203466346F34E9
:1011AA0072346D34613474346F34203432343434EC
:1011BA00203445346A343A342034313435342034D6
:1011CA000D340A3400340D340A34203445346C3476
:1011DA00203464346934613420346434653420340E
:1011EA006C3461342034733465346D3461346E3454
:1011FA006134203472346534633469346234693456
:10120A0064346F34203466347534653420342534BC
:10121A00783400340D340A3420344C3461342034A8
:10122A006634653463346834613420346534733425
:10123A003A342034253430343234643420342F3470
:10124A002034253430343234643420342F3420347A
:10125A0032343034253430343234643400340D348A
:10126A000A34203445346C3420344E3475346D34A9
:10127A00653472346F342034643465346C34203409
:10128A006D346534733420347234653463346934AC
:10129A006234693464346F342034663475346534A6
:1012AA0020342534783400340D340A3420344C3454
:1012BA006F347334203473346534673475346E3460
:1012CA0064346F347334203472346534633469346B
:1012DA006234693464346F34733420346634753458
:1012EA00653472346F346E342034253478340034E3
:1012FA000D340A3420344C346F34733420344D3472
:10130A0069346E34753474346F34733420347234FF
:10131A006534633469346234693464346F347334E1
:10132A00203466347534653472346F346E34203444
:10133A002534783400340D340A34203445346E347C
:10134A00763469346534203465346C34203464343A
:10135A00693461342034643465346C3420346D3437
:10136A00653473342E34203445346A3420343234AC
:10137A00383420340D340A3400340D340A3420341D
:10138A0045346C3420346434693461342034643430
:10139A0065346C3420346D346534733420347234DB
:1013AA006534633469346234693464346F342034A4
:1013BA0066347534653420342534783400340D3479
:1013CA000A3420344C3461347334203448346F3452
:1013DA00723461347334203472346534633469345A
:1013EA006234693464346134733420346634753455
:1013FA00653472346F346E342034253478340034D2
:10140A000D340A34203445346E3476346934653404
:10141A0020346C346F347334203473346534673455
:10142A0075346E3464346F347334203445346A341A
:10143A003A3420343134333420340D340A3400340D
:10144A000D340A3420345634753465346C347634A9
:10145A006134203461342034673472346134623444
:10146A006134723420346C346F347334203464340D
:10147A00613474346F34733420340D340A340034D4
:10148A000D340A34203445346E3476346934653484
:10149A0020346C346F34733420344D3469346E34F0
:1014AA00753474346F347334203445346A343A34BE
:1014BA0020343234353420340D340A3400340D34B7
:1014CA000A34203453346F346C346F342034733418
:1014DA00653420347034653472346D34693474344C
:1014EA0065346E3420346E3475346D346534723438
:1014FA006F34733420340D340A34003420344C34BD
:10150A006134203448346F347234613420346534A1
:10151A0073343A342034203420342034253430349F
:10152A00323464343A3425343034323464343A341C
:10153A00253430343234643400340D340A342034DF
:10154A0049346E346934633469346F342034643412
:10155A0065346C34203453346534743465346F34F0
:10156A00203464346534203448346F34723461343E
:10157A0000340D340A3420345334653474346534F9
:10158A006F34203464346534203448346F34723410
:10159A0061342034463469346E3461346C346934CD
:1015AA007A34613464346F3400340D340A342034AC
:1015BA0045346C3420346134F1346F34203472345D
:1015CA006534633469346234693464346F34203482
:1015DA006634753465342034253478340034303434
:1015EA0031343234333434343534363437343834AD
:1015FA0039346134623463346434653466340034B3
:06160A00253463340034B6
:020000040001F9
:04000E00E2FFFFDE30
:00000001FF
