:10000000803102288731FD2FFC01FD012000241CD6
:100010000D282608FC072708FD3D0130A635A70D51
:10002000890B0E280130A536A40C890B132824084F
:100030002504031D06287D08A5007C08A4000800EF
:10004000730803192828720871047004031D3928E5
:100050000030F0000030F1000030F2000800013004
:10006000F5007508F3070130F236F10CF00C890B3E
:100070003428FE307205031952282F280130F5006C
:100080007508F3070130F007003003180130F1075D
:10009000003003180130F2070130F236F10CF00C99
:1000A000890B4D28FF30720503195F283E28013067
:1000B000F3020130F035F10DF20D890B5A28F11BD6
:1000C0006528023073020318572873186D28FF3013
:1000D000F0057F30F105FF30F2050310F30C7308D3
:1000E000F500F601F7011030F535F60DF70D890B27
:1000F00074287508F0047608F1047708F20474088F
:1001000003190800F21708002000C5006E304502F0
:10011000031C44290A30F7000030F8004508BB00F2
:10012000BC013B08F2003C08F3006430F0000030F2
:10013000F1009731692780317108FA007008F900E1
:100140008831042080317708093E2000A400003067
:10015000783DA5000330A6000030A70080310420C0
:100160008031200025088500240884002830840779
:100170009030853D003FA800013FA900023FAA0042
:100180006430F7000030F8004508BD00BE013D08AE
:10019000F9003E08FA008831042080317708123EC9
:1001A0002000A4000030783DA5000330A6000030F8
:1001B000A700803104208031200025088500240814
:1001C0008400283084079030853D003FAB00013F1C
:1001D000AC00023FAD008931862180312000280823
:1001E000C2002908C3002A08C4004508BB00BC019E
:1001F0003B08F2003C08F3000A30F0000030F10048
:1002000097316927803171082000A5007008A4008B
:100210000330A6000030A700803104208031200088
:100220002508850024088400283084079030853D07
:10023000003FA800013FA900023FAA004208AB000E
:100240004308AC004408AD0089318621803120008C
:100250002808BF002908C0002A08C1000030A800F3
:100260000030A9003F30AA003F08AB004008AC00B6
:100270004108AD008931862120002808B8002908EE
:10028000B9002A08BA0008000B304502031CBC293B
:100290004508BB00BC013B08F2003C08F3000A30F3
:1002A000F0000030F100973169278031710820009B
:1002B000A5007008A4000330A6000030A70080311C
:1002C000042080312000250885002408840028307F
:1002D00084079030853D003FA800013FA900023F00
:1002E000AA000A30F7000030F8004508BD00BE0142
:1002F0003D08F9003E08FA00883104208031770873
:10030000093E2000A4000030783DA5000330A6007F
:100310000030A700803104208031200025088500AE
:1003200024088400283084079030853D003FAB00CE
:10033000013FAC00023FAD008931862180312000B1
:100340002808C2002908C3002A08C4000030A800F9
:100350000030A9003F30AA004208AB004308AC00BF
:100360004408AD008931862120002808B8002908FA
:10037000B9002A08BA0008000030A8000030A9001F
:100380003F30AA004508BB00BC013B08A4003C0864
:10039000A5000330A6000030A70080310420803182
:1003A0002000250885002408840028308407903028
:1003B000853D003FAB00013FAC00023FAD008931FD
:1003C000862120002808B8002908B9002A08BA00A8
:1003D00008005B302000DE005E082100A400200041
:1003E0005A08DF005908DE00D90A0319DA0A5E0844
:1003F00084005F0885000008E00060082100BA0062
:100400003A080319080025303A0603190C2A3A085D
:1004100096312F268131EF292100B301B401AB01C0
:10042000AC012000590884005A0885000008963164
:100430005E268131031C592A2100B301B4010A3020
:100440002000A4000030A500210034082000A700EF
:10045000210033082000A6008031042081312000D3
:1004600025082100B400200024082100B30020004A
:10047000590884005A0885000008D03EDE00FF308D
:1004800003180030DF005E082100B30720005F087A
:100490002100B43D01302000D9070030DA3D590871
:1004A00084005A088500000896315E2681310318C1
:1004B0001F2A2000590884005A08850012002E3A8D
:1004C000031DA42A21002C1701302000D907003079
:1004D000DA3D2100B801B9012000590884005A080A
:1004E0008500000896315E268131031C0B2B20000D
:1004F000590884005A0885000008DE00DF01210049
:1005000039082000A500210038082000A4000A3086
:10051000A6000030A70080310420813120005E0851
:100520002407E0005F08253DE1006008D03E21007F
:10053000B800FF302000613D2100B90001302000EB
:10054000D9070030DA3D6C2A2100B801B9012C1618
:100550000B2B2C15242B380839040319BB2A260829
:100560003902031DB52A250838020318BB2A3908A9
:10057000A6003808A50034082602031DC12A330846
:1005800025020318C82A2508B3022608B43BCA2A44
:10059000B301B401FF302100B307FF30B43D330A8B
:1005A0000319340A0319E62A203096312F268131A7
:1005B000CA2A230886008701010896312F26813137
:1005C00001302000DE005E082100A3070130A502F3
:1005D0000030A63B250A031DD92A260A0319EF2954
:1005E000D92A24088600870101082000DE005E0861
:1005F0002100BA0002302000DE005E082100A407BE
:10060000BA302000DE005E082100A3000130A50002
:100610000030A600AB2A20005A08DF005908DE008F
:10062000D90A0319DA0A5E0884005F088500000809
:100630002100BA00003A0319FC2F633A0319F12A8A
:10064000053A0319A92A002B00302B052000DE00F3
:10065000073021002C052000DF005E085F0403192D
:10066000352F21002C1E382B0630B8000030B90081
:10067000240886008701403FB500413FB600423F55
:10068000B70003302000DE005E082100A407350813
:10069000F0003608F1003708F2000030F3000030B7
:1006A000F4000030F5009631EC26813103186D2BF3
:1006B00021003508F0003608F1003708F2009631C5
:1006C0003A26813170082100B5007108B600720821
:1006D000B7000330AB040030AC042100B101B2011B
:1006E00037083604350403192D2CB53086008701F0
:1006F000403F2000DE00413FDF00423FE000433F3B
:10070000E1000F30E136E00CDF0CDE0C890B822BB0
:10071000FF305E05E20000305F05E3006208823EC4
:100720002100B100FF302000633D2100B200FF3006
:10073000B107FF30B23D03302000A4000030A50017
:10074000210032082000A700210031082000A60067
:10075000803104208131200025082100B2002000D2
:1007600024082100B1000A30F7000030F8003208F8
:10077000FA003108F900883104208131780821001D
:10078000B2007708B100B21FC92BFF30B107FF30AC
:10079000B23D3103FF3A8D31BC258131200038084C
:1007A0002100AD00200039082100AE0020003A08E9
:1007B0002100AF0035082000A800210036082000E5
:1007C000A900210037082000AA0021002D082000E0
:1007D000AB0021002E082000AC0021002F082000D3
:1007E000AD00893186218131200028082100AD002B
:1007F000200029082100AE0020002A082100AF00B7
:100800002D08F0002E08F1002F08F2000030F30050
:100810008030F4003F30F5009631EC26813103182A
:10082000162CFF302100B107FF302C2C21002D08A1
:10083000F0002E08F1002F08F2000030F300203005
:10084000F4004130F5009631EC268131031C2D2C4B
:1008500001302100B1070030B23D21003908803A53
:100860002000DE0080305E02031D392C0D30210097
:1008700038020318622C210038088031842081312D
:1008800020003808C6003908C7003A08C80021000F
:1008900035082000C900210036082000CA002100C8
:1008A00037082000CB008B31A92381312000460876
:1008B0002100B500200047082100B60020004808AC
:1008C0002100B70021003208803A2000DE0080308D
:1008D0005E02031D6E2C0A30210031020318992C90
:1008E00021003708360435040319E12C35082000AF
:1008F000C100210036082000C20021003708200076
:10090000C30088315620813120004408430442044A
:100910004104031DE12C21003208803A2000DE0052
:1009200080305E02031D972C023021003102031C2F
:10093000E12C21002D08F0002E08F1002F08F20014
:100940007030F3008930F4004030F5009631EC2629
:1009500081310318AD2CF730AE2CF8302100B107EF
:10096000FF30B23D31088D31BC258131200038087F
:100970002100AD00200039082100AE0020003A0817
:100980002100AF003508F0003608F1003708F2000A
:100990002D08F3002E08F4002F08F5008A313A22C2
:1009A000813173082100AA007208A9007108A8000B
:1009B0007008A7000030B5000030B6000030B70066
:1009C0002F2D210035082000C1002100360820000D
:1009D000C200210037082000C30088315620813131
:1009E000200044082100AA00200043082100A9009B
:1009F000200042082100A800200041082100A70093
:100A00002A08FB002908FA002808F9002708F8003E
:100A10009631C426813178082000D3007908D400AB
:100A20007A08D500210035082000D60021003608BC
:100A30002000D700210037082000D80096317F26FB
:100A40008131200053082100B50020005408210006
:100A5000B600200055082100B700B101B201BA016B
:100A6000BA0A0A303A0603196C2D3A082000DE0053
:100A7000DF01DE35DF0DDE35DF0D00305E0784007F
:100A800090305F3D8500003FE000013FE100023F04
:100A9000E200033FE300630821002A02031D602DEA
:100AA0002000620821002902031D602D200061083A
:100AB00021002802031D602D20006008210027026C
:100AC000031C6C2D01302000DE005E082100BA07F7
:100AD0000A303A06031D352D3A082000DE00DF01FA
:100AE000DE1BDF032100380820005E07E000210044
:100AF000390820005F3DE100210031082000600737
:100B0000E200210032082000613DE300620821007C
:100B1000B302200063082100B43B380839040319EC
:100B2000952DFF30B307FF30B43D03302B05200077
:100B3000DE00003021002C052000DF005E085F048D
:100B40000319A72DFF302100B307FF30B43D21006A
:100B50003408803A2000DE0080305E02031DB32D91
:100B6000013021003302031CBA2D203096312F268C
:100B70008131A22D033021002B052000DE00003042
:100B800021002C052000DF005E085F040319CC2D36
:100B90002D3096312F268131FF302000DE005E0897
:100BA0002100BA073A0A0319292E21003A08200029
:100BB000DE00DF01DE35DF0DDE35DF0D00305E07E4
:100BC000840090305F3D8500003FF000013FF10060
:100BD000023FF200033FF30021002A08F700290832
:100BE000F6002808F5002708F4009731AE27813178
:100BF00073082100B0007208AF007108AE007008E1
:100C0000AD000030F3000030F2000030F1000A3097
:100C1000F0003008F7002F08F6002E08F5002D0828
:100C2000F40097312727813173082100B000720842
:100C3000AF007108AE007008AD002D08303EC92D20
:100C4000303096312F268131FF302100B107FF303F
:100C5000B23D3208803A2000DE0080305E02031D83
:100C6000342E0130210031020318202E21003908D2
:100C7000803A2000DE0080305E02031D422E0930E3
:100C800021003802031C462E0830482E2100380867
:100C90002000DE005E082100BA003A082000DE00D5
:100CA000DF01DE1BDF035E082100B80220005F08C1
:100CB0002100B93B3A080319612E2E3096312F26B8
:100CC000813121003A088D31BC258131200038085E
:100CD0002100A000200039082100A10020003A08CE
:100CE0002100A20020082000AB00210021082000E4
:100CF000AC00210022082000AD00210035082000B2
:100D0000A800210036082000A90021003708200093
:100D1000AA0089318621813120002808C1002908D4
:100D2000C2002A08C30088315620813120004408BF
:100D30002100AA00200043082100A9002000420849
:100D40002100A800200041082100A700FF3020005A
:100D5000DE005E082100BA073A0A0319302F3A086C
:100D60002000DE00DF01DE35DF0DDE35DF0D003077
:100D70005E07840090305F3D8500003FF000013F3A
:100D8000F100023FF200033FF30021002A08F700C0
:100D90002908F6002808F5002708F4009731AE2747
:100DA000813173082100B0007208AF007108AE00F5
:100DB0007008AD000030F3000030F2000030F100A8
:100DC0000A30F0003008F7002F08F6002E08F50072
:100DD0002D08F40097312727813173082100B000D6
:100DE0007208AF007108AE007008AD002D08303EEB
:100DF00096312F26813121003A082000DE00DF01E4
:100E0000DE35DF0DDE35DF0D00305E07840090300B
:100E10005F3D8500003FF000013FF100023FF2001E
:100E2000033FF30021002A08F7002908F6002808EC
:100E3000F5002708F4009731272781317308210036
:100E4000AA007208A9007108A8007008A52E303009
:100E500096312F268131FF302100B807FF30B93D90
:100E6000380839040319EF29272F210038083904DD
:100E7000031D442F2A08290428042704031D442F96
:100E80000130B8070030B93D3A082000DE00DF012C
:100E9000DE1BDF035F08803AE00021003908803A5A
:100EA00020006002031D582F2100380820005E0238
:100EB0000318622F210038082000DE005E082100A0
:100EC000BA007E2F21003A082000DE00DF01DE1B81
:100ED000DF0321003908803A2000E0005F08803AF3
:100EE0006002031D762F5E082100380203187E2F52
:100EF00021003A08B800B901B81BB9032100330832
:100F000034040319952F03302B052000DE00003038
:100F100021002C052000DF005E085F040319952FD7
:100F2000FF302100B307FF30B43D21002C1FB12F4B
:100F30003908803A2000DE0021003408803A200081
:100F40005E02031DA62F2100330838020318AE2FBE
:100F500021003808B3023908B43BB12F2100B30196
:100F6000B4013A082000DE00DF01DE1BDF035F086A
:100F7000803AE00021003408803A20006002031D1E
:100F8000C52F2100330820005E020318D62F210050
:100F90003A082000DE00DF01DE1BDF035E082100CF
:100FA000B30220005F082100B43BD92F2100B30118
:100FB000B401330834040319EA2F203096312F2668
:100FC0008131FF302100B307FF30B43D33083404D2
:100FD000031DDD2F03302B052000DE000030210033
:100FE0002C052000DF005E085F040319EF292D3077
:100FF00096312F268131EF29080020008A31F02A0E
:101008002000A101F81F0F28F709F809F70A0319AA
:10101800F80AA101A10AFA1F1A28F909FA09F90A16
:101028000319FA0A0130FB007B08A106A201A301FB
:101038007708780403194928A001A00AF81B2E286C
:101048000130F735F80D890B25280130FB007B08A6
:10105800A00722280130A235A30D890B2F28780874
:101068007A02031D392877087902031C402877087B
:10107800F9027808FA3B22140130F836F70C890B8C
:1010880041280130A002031D2E28210803195128E8
:10109800A209A309A20A0319A30A2308F80022082F
:1010A800F700080020004108C5004208C6004308B0
:1010B800C7000310460D470DC8004808CE004E086B
:1010C800031D6F280030C4000030C3000030C20088
:1010D8000030C10008004108C5004208C6004308A6
:1010E800C7001730C736C60CC50C890B76284508CB
:1010F800C8004808C900C217FF30C105FF30C20543
:101108000030C3054108CA004208CB004308CC00A0
:10111800CD018E30CE02CE1FAD284E08803A8F3ECC
:1011280003189F280030C4000030C3000030C200FC
:101138000030C10008000130CD36CC0CCB0CCA0CF5
:10114800890BA0280130C5004508CE070319C62819
:101158009F2818304E02031CC3280030C4000030FA
:10116800C3000030C2000030C10008000130CA3599
:10117800CB0DCC0DCD0D890BBB280130CE024E080E
:10118800031DBA2849080319D428CA09CB09CC0970
:10119800CD09CA0A0319CB0A0319CC0A0319CD0AC7
:1011A8004D08C4004C08C3004B08C2004A08C100DF
:1011B800080020003B08BE003C08BF003D08C000F6
:1011C80003103F0D400DC1004108C6004608031D2D
:1011D800F4280030B8000030B9000030BA00080028
:1011E8003808BE003908BF003A08C00003103F0D98
:1011F800400DC1004108C7004708031D0A290030F7
:10120800B8000030B9000030BA0008000030C30050
:101218000030C4000030C50089304707BE003E08D2
:10122800C6023B08BE003C08BF003D08C0001030A5
:10123800C036BF0CBE0C890B1C293E08C1004108F2
:10124800C7003808BE003908BF003A08C00010308F
:10125800C036BF0CBE0C890B2C293E08C1004108C2
:10126800C7068030BE003E08C705BC17FF30BB0567
:10127800FF30BC050030BD05B917FF30B805FF3099
:10128800B9050030BA051830BE003E08C20001306A
:10129800C335C40DC50D890B4C293A083D02031D01
:1012A8005B2939083C02031D5B2938083B02031CF3
:1012B80064293808BB023908BC3B3A08BD3B4314D3
:1012C8000130BB35BC0DBD0D890B65290130C2024B
:1012D800031D4B294308F0004408F1004508F200BB
:1012E8004608BE003E08F3004708BF003F08F40068
:1012F8008031202070082000B8007108B9007208F9
:10130800BA00080020002808AE002908AF002A0803
:10131800B00003102F0D300DB1003108B2003208B3
:10132800031D9D290030A8000030A9000030AA0044
:1013380008002B08AE002C08AF002D08B0000310E1
:101348002F0D300DB1003108B7003708031DB32940
:101358000030A8000030A9000030AA0008003708B3
:101368007B3EAE002E08B2072808AE002908AF0061
:101378002A08B0001030B036AF0CAE0C890BBF296C
:101388002E08B1003108B7002B08AE002C08AF00BA
:101398002D08B0001030B036AF0CAE0C890BCF2939
:1013A8002E08B1003108B7068030AE002E08B70508
:1013B800A917AC17FF30AB05FF30AC050030AD0501
:1013C8000030B3000030B4000030B5000730AE0084
:1013D8002E08B600281CF6292B08B3072C08B43DA4
:1013E8002D08B53D0130AA36A90CA80C890BF729A0
:1013F8000130AB35AC0DAD0D890BFD290130B602BE
:10140800031DEE290930AE002E08B600281C122A4A
:101418002B08B3072C08B43D2D08B53D0130AA367A
:10142800A90CA80C890B132A0130B536B40CB30CDF
:10143800890B192A0130B602031D0A2A3308F00065
:101448003408F1003508F2003208AE002E08F30027
:101458003708AF002F08F4008031202070082000E2
:10146800A8007108A9007208AA0008007008F60010
:101478007108F7007208F8000310770D780DF9006D
:1014880079082000A5002508031D532A0030F30021
:101498000030F2000030F1000030F000080073085E
:1014A800F6007408F7007508F8000310770D780D3A
:1014B800F9007908A4002408031D6B2A0030F30002
:1014C8000030F2000030F1000030F0000800F117A1
:1014D800FF30F005FF30F1050030F205F417FF305A
:1014E800F305FF30F4050030F5050030A3000030A7
:1014F800A2000030A1000030A0007F30A502983083
:101508002407F6007608A5021830F6007608A4002D
:101518000130A035A10DA20DA30D890B8D2A7508E8
:101528007202031D9D2A74087102031D9D2A730807
:101538007002031CA62A7308F0027408F13B7508B0
:10154800F23B20140130F035F10DF20D890BA72A7A
:101558000130A402031D8C2AA51FCE2A2508803A33
:10156800973E0318C02A0030F3000030F200003024
:10157800F1000030F00008000130A336A20CA10CE5
:10158800A00C890BC12A0130F6007608A5070319BB
:10159800E72AC02A18302502031CE42A0030F30089
:1015A8000030F2000030F1000030F0000800013097
:1015B800A035A10DA20DA30D890BDC2A0130A502CF
:1015C8002508031DDB2A2308F3002208F20021085E
:1015D800F1002008F000080096314A268A311B30B5
:1015E8002000E4006408E70022000E1020302000EC
:1015F8009800200097019601E801E90122000E14E5
:1016080013302000E400E40B072B003222000E10F8
:1016180020008E1C0C2B18148E1C142B111C102B44
:1016280018101118292B1708E400E5016408E500D3
:10163800E4016408E8046508E9041608E400E50123
:101648006408E8046508E9042C2BE801E901111095
:101658000030B8006830B9004230BA00CD30A80078
:101668004C30A9003F30AA006908F9006808F80062
:1016780096316C268A3178082000AB007908AC00D6
:101688007A08AD00893186218A3120002808BB00FC
:101698002908BC002A08BD008831DD208A312000D5
:1016A8003808EA003908EB003A08EC006A08F0004C
:1016B8006B08F1006C08F2000030F3002030F400F1
:1016C8004130F5009631EC268A3103186E2B220042
:1016D8000F16702B22000F128D302000D900903089
:1016E800DA006708E400E5016408DB006508DC004F
:1016F8008131E9218A3103302000E6000830E50015
:101708007830E400E40B862BE50B862BE60B862B62
:1017180076302000D9009030DA006A08DB006B08C8
:10172800DC006C08DD008131E9218A3117302000A6
:10173800E600D530E5002B30E400E40BA12BE50BE7
:10174800A12BE60BA12B0000FD2A20004608CC00A7
:101758004708CD004808CE0003104D0D4E0DCF00B0
:101768004F08D2004908CC004A08CD004B08CE00EB
:1017780003104D0D4E0DCF004F08D100520803192C
:10178800D12B510852020318D82B5203FF3A5107A4
:10179800CC0019304C02031CD82B4908C6004A0853
:1017A800C7004B08C8000800510803190800520870
:1017B80051020318E72B5103FF3A5207CC001930A6
:1017C8004C02031808000630CC004C08D000C81B97
:1017D800D017CB1B5017C717FF30C605FF30C705FA
:1017E8000030C805CA17FF30C905FF30CA050030E8
:1017F800CB05510852020318232C0130C935CA0DF4
:10180800CB0D890B022C0130D10251085206031965
:101818001E2C0130D0025008073903191E2C012C48
:101828000130C836C70CC60C890B152C0130CC000A
:101838004C08D207520851060319482C142C520898
:1018480051020318482C0130C635C70DC80D890B45
:10185800282C0130D202510852060319442C0130B9
:10186800D002500807390319442C272C0130CB36F5
:10187800CA0CC90C890B3B2C0130CC004C08D10791
:1018880052085106031D3A2CD01F5A2CFF30C606A9
:10189800FF30C706FF30C8060130C60700300318FE
:1018A8000130C707003003180130C807501F6C2CDF
:1018B800FF30C906FF30CA06FF30CB060130C90722
:1018C800003003180130CA07003003180130CB0775
:1018D800D0014608C9074708CA3D4808CB3DCB1F79
:1018E800872CFF30C906FF30CA06FF30CB0601300F
:1018F800C907003003180130CA0700300318013047
:10190800CB07D001D00A4908F0004A08F1004B087B
:10191800F2005208CC004C08F3005008CD004D08E6
:10192800F4008031202070082000C6007108C7002C
:101938007208C8000800703086008701403FF60032
:10194800413FF700423FF800433FF9000310780D8C
:10195800790DFA007A082000A5002508031DBD2C82
:101968000030F3000030F2000030F1000030F000E9
:101978000800733086008701403FF600413FF700BA
:10198800423FF800433FF9000310780D790DFA0043
:101998007A08A4002408031DDA2C0030F300003074
:1019A800F2000030F1000030F000080070308600CE
:1019B8008701003081044131003081044131803099
:1019C8008104413100308104703086008701FF3086
:1019D80081054131FF3081054131FF3081054131B9
:1019E8000030810573308600870100308104413161
:1019F800003081044131803081044131003081045C
:101A0800733086008701FF3081054131FF30810541
:101A18004131FF3081054131003081050030A3009C
:101A28000030A2000030A1000030A0007F30A502E5
:101A3800A0302407F6007608A5022030F6007608C4
:101A4800A4000130A035A10DA20DA30D890B262DF0
:101A5800733086008701403FF600413FF700423F60
:101A6800F800433FF900703086008701403FFA00D4
:101A7800413FFB00423FFC00433FFD0079087D02E7
:101A8800031D502D78087C02031D502D77087B021A
:101A9800031D502D76087A02031C6D2D73308600C5
:101AA8008701403FF600413FF700423FF800433FBF
:101AB800F900703086008701760881024131770885
:101AC800813B41317808813B41317908813B7D3147
:101AD800201470308600870181354131810D4131F4
:101AE800810D4131810D7D310130A402031D252D69
:101AF800A51F9A2D2508803A9F3E03188C2D00308B
:101B0800F3000030F2000030F1000030F00008006F
:101B18000130A336A20CA10CA00C890B8D2D01302D
:101B2800F6007608A5070319B32D8C2D2030250261
:101B3800031CB02D0030F3000030F2000030F1003B
:101B48000030F00008000130A035A10DA20DA30D52
:101B5800890BA82D0130A5022508031DA72D2308F0
:101B6800F3002208F2002108F1002008F000080024
:101B78002000C000C01FE12EC009C00A4008803AFA
:101B8800123E031C652E0A30F7000030F8004008AA
:101B9800F200F301F21BF3036430F0000030F100AF
:101BA800973169278D317108FA007008F90088317A
:101BB80004208D317708093E2000A4000030783DCC
:101BC800A5000330A6000030A700803104208D3125
:101BD80020002508850024088400283084079030D8
:101BE800853D003FA800013FA900023FAA006430DC
:101BF800F7000030F8004008F900FA01F91BFA0371
:101C0800883104208D317708123E2000A40000306E
:101C1800783DA5000330A6000030A70080310420DD
:101C28008D31200025088500240884002830840789
:101C38009030853D003FAB00013FAC00023FAD0056
:101C4800893186218D3120002808BD002908BE0071
:101C58002A08BF004008F200F301F21BF3030A3020
:101C6800F0000030F100973169278D3171082000AC
:101C7800A5007008A4000330A6000030A70080313A
:101C880004208D3120002508850024088400283090
:101C980084079030853D003FA800013FA900023F1E
:101CA800AA003D08AB003E08AC003F08AD008931F2
:101CB800862120002808B8002908B9002A08BA0097
:101CC80008004008803A753E031CC42E4008F20004
:101CD800F301F21BF3030A30F0000030F1009731F2
:101CE80069278D3171082000A5007008A400033011
:101CF800A6000030A700803104208D31200025087F
:101D0800850024088400283084079030853D003FF2
:101D1800A800013FA900023FAA000A30F7000030DE
:101D2800F8004008F900FA01F91BFA038831042089
:101D38008D317708093E2000A4000030783DA500C9
:101D48000330A6000030A700803104208D31200028
:101D58002508850024088400283084079030853DB4
:101D6800003FAB00013FAC00023FAD008931862146
:101D780020002808B8002908B9002A08BA00080075
:101D88004008BB00BC013B08A4003C08A500033088
:101D9800A6000030A7008031042020002508850017
:101DA80024088400283084079030853D003FB8001F
:101DB800013FB900023FBA0008004008803A123ECD
:101DC800031C842F0A30F7000030F8004008F200A6
:101DD800F301F21BF3036430F0000030F100973197
:101DE80069278D317108FA007008F90088310420DC
:101DF8008D317708093E2000A4000030783DA50009
:101E08000330A6000030A700803104208D31200067
:101E180025088500240884004F3084079030853DCC
:101E2800003FA800013FA900023FAA006430F70064
:101E38000030F8004008F900FA01F91BFA0388316C
:101E480004208D317708123E2000A4000030783D30
:101E5800A5000330A6000030A700803104208D3192
:101E6800200025088500240884004F30840790301E
:101E7800853D003FAB00013FAC00023FAD0089311A
:101E880086218D3120002808BD002908BE002A08B7
:101E9800BF004008F200F301F21BF3030A30F00020
:101EA8000030F100973169278D3171082000A500B5
:101EB8007008A4000330A6000030A7008031042079
:101EC8008D31200025088500240884004F308407C0
:101ED8009030853D003FA800013FA900023FAA00BD
:101EE8003D08AB003E08AC003F08AD0089318621B3
:101EF80020002808B8002908B9002A08BA000800F4
:101F08004008803A753E031CE32F4008F200F301B5
:101F1800F21BF3030A30F0000030F1009731692713
:101F28008D3171082000A5007008A4000330A600B8
:101F38000030A700803104208D312000250885005D
:101F4800240884004F3084079030853D003FA80066
:101F5800013FA900023FAA000A30F7000030F8004C
:101F68004008F900FA01F91BFA03883104208D3181
:101F78007708093E2000A4000030783DA500033012
:101F8800A6000030A700803104208D3120002508EC
:101F98008500240884004F3084079030853D003F39
:101FA800AB00013FAC00023FAD0089318621200023
:101FB8002808B8002908B9002A08BA00080040080B
:101FC800BB00BC013B08A4003C08A5000330A600E8
:101FD8000030A7008031042020002508850024084F
:101FE80084004F3084079030853D003FB800013FA2
:101FF800B900023FBA00080001340034003400344C
:102008000A340034003400346434003400340034BA
:10201800E8340334003400341034273400340034F6
:10202800A034863401340034403442340F34003450
:1020380080349634983400340034E134F53405346F
:102048000034CA349A343B34003480343F34CD34BD
:10205800CC343D34D73423343C34123483343A34CA
:10206800B734D1343834C634273437343834863426
:102078003534C034D6343334CC342B343234703421
:1020880089343034E734DB342E34E5343C341E34C0
:102098004234A2340D34003480343F3400342034C8
:1020A80041340034C834423400347A34443440343F
:1020B8001C3446345034C3344734243474344934DB
:1020C800973418344B34BC34BE344C346B346E34CF
:1020D8004E340334153450347934AD346034F33429
:1020E800493471344C3461342034443469347334A1
:1020F800743461346E346334693461342034453463
:1021080073343A342034253435342E34313466343B
:08211800003425346334003467
:102C5E00F1007108963142260800383021009900A3
:102C6E009A01980108007208710470040319080093
:102C7E008030F2060800F0002000111E432E70086E
:102C8E0023009A00080096319D26963196313426FF
:102C9E009631963153260800083023009F0090305D
:102CAE009D0024309E0056309B009C010800F100D0
:102CBE00F0013A30710203186A2E30307102031C93
:102CCE006A2EF001F00A700C08007808F0007908FE
:102CDE00F100F2018E30FB007B08F300F40180312D
:102CEE0020207008F8007108F9007208FA00080038
:102CFE0020005508540453040319872E8030D5063E
:102D0E005608C6005708C7005808C8005308C9001F
:102D1E005408CA005508CB008B31A9232000460861
:102D2E00D3004708D4004808D500080022008D01C2
:102D3E0008302400900022008C0107302300900000
:102D4E00220090018F018E013F3023008C003F3016
:102D5E008D00EF308F00FF3024008D00EF3021000A
:102D6E008F000F309000FF308D00BE308E00FF3090
:102D7E008C00951722009D0108008E30FC007C0807
:102D8E00FD00FF307B050319D82E0130FB36FA0CFF
:102D9E00F90CF80C890BCD2E0130FC007C08FD07D8
:102DAE00C82E7808F0007908F1007A08F2007D0844
:102DBE00FC007C08F300F401803120207008F8003C
:102DCE007108F9007208FA000800F21F022F70094C
:102DDE00F6007109F7007209F800F60A0319F70AEE
:102DEE000319F80A00307607F0000030773DF10045
:102DFE008030783DF200F51F182F7309F600740924
:102E0E00F7007509F800F60A0319F70A0319F80A0C
:102E1E0000307607F3000030773DF4008030783DC7
:102E2E00F5008030F2068030F50675087202031D3B
:102E3E00080074087102031D080073087002080070
:102E4E0073087204710470040319602FF901F90AF2
:102E5E00F31B3D2F0130F035F10DF20DF30D890B03
:102E6E00322F0130F8007808F9072F2F73087702F8
:102E7E00031D4B2F72087602031D4B2F710875022E
:102E8E00031D4B2F70087402031C552F7008F4029B
:102E9E007108F53B7208F63B7308F73B0130F336C9
:102EAE00F20CF10CF00C890B562F0130F902031DB8
:102EBE003D2F7708F3007608F2007508F1007408CC
:102ECE00F0000800F601F31F732FF209F309F20A5E
:102EDE000319F30AF601F60AF11F7A2FF009F10928
:102EEE00F00A0319F10A700871040319A12FF501F4
:102EFE00F50AF11B8C2F0130F035F10D890B832F64
:102F0E000130F4007408F507802F71087302031D59
:102F1E00922F70087202031C982F7008F20271082B
:102F2E00F33B0130F136F00C890B992F0130F5028D
:102F3E00031D8C2F76080319A92FF209F309F20A43
:102F4E000319F30A7308F1007208F000080000304C
:102F5E00FC000030FB000030FA000030F90073086E
:102F6E007204710470040319F72FFD01FD0AF31B9F
:102F7E00CC2F0130F035F10DF20DF30D890BC12F71
:102F8E000130F8007808FD07BE2F0130F935FA0D33
:102F9E00FB0DFC0D890BCD2F73087702031DE12F5E
:102FAE0072087602031DE12F71087502031DE12FD1
:102FBE0070087402031CEC2F7008F4027108F53BC4
:102FCE007208F63B7308F73B79140130F336F20CB6
:102FDE00F10CF00C890BED2F0130FD02031DCC2FEF
:102FEE007C08F3007B08F2007A08F1007908F00003
:022FFE000800C9
:020000040001F9
:04000E00E2FFFFDE30
:00000001FF
