:08000000803102288731FD2F39
:100F34003830210099009A0198010800F00020003F
:100F4400111EA12F700823009A0008008731D627AC
:100F5400873187319A2787318731B12708000830D4
:100F640023009F0090309D0024309E0081309B0020
:100F74009C01080023009D162000911EBE2F230013
:100F84009D1CC62F9D139D17190808008731A8279B
:100F940087318731BC278731F1007108F20072086C
:100FA4008731A0278731CB2F22008D010830240000
:100FB400900022008C010730230090002200900151
:100FC4008F018E013F3023008C003F308D00FF30B5
:100FD4008F00FF3024008D00FF3021008F000F3080
:100FE4009000FF308D00BF308E00FF308C009517CD
:0C0FF40022009D01080020008731C82F5A
:020000040001F9
:04000E00E2FFFFDE30
:00000001FF
