:020000040000FA
:0400000080310D2816
:100008007E1480318B190B1C0B28803115207E1033
:10001800090080310F28F401F5017E10200080319D
:100028006F282700161E332820000F1A1F280130BA
:10003800F4000030F5008F1A25280430F400003051
:10004800F5000F1B2B280730F4000030F5008F1B3C
:1000580031280B30F4000030F50027001612961EE8
:100068004E2820000F1A3C280230F4000030F5001A
:100078008F1A42280530F4000030F5000F1B48287D
:100088000830F4000030F5008F1B4C28F401F5010E
:1000980027009612161F6B2820000F1A57280330C6
:1000A800F4000030F5008F1A5D280630F4000030A7
:1000B800F5000F1B63280930F4000030F5008F1B92
:1000C80069280C30F4000030F50027001613961F3D
:1000D8000800961308008031EA2080318B170F3012
:1000E800F0007008F20022001014F3010130F00053
:1000F800730A7F28F035890B7E287008FF3AF100D3
:100108007108F2057208F0000330F035FF3E031D58
:1001180089287035740422008F000130F000730ABA
:100128009628F035890B95287008F1007108F204BB
:100138007208F0000330F035FF3E031D9F2870352C
:1001480074048F0020000D18A6284130F000EE300E
:10015800890BAC28F00BAC2800320130F000700895
:10016800F30704307302031873287A280130220039
:1001780090008F018C018D018E010E3021009000BE
:10018800FF308C00FF308D00FF308E008F01230080
:100198008F010F308D00063090003F308C00240016
:1001A8009001F0308D002100951322009D01270059
:1001B80016129612161396131516951615179517E7
:1001C80014129412141394138B1508008031BA205A
:1001D80080318031F32080318031FA2008003830B6
:1001E800210099009801220096010800163021008C
:0401F8009700080064
:020000040001F9
:04000E00C2FFFFDE50
:00000001FF
