:04000000803114280F
:100008007E14803120007F08F7008B190B1C0F2805
:1000180080312B200B1077082000FF007E1009008C
:1000280080311628813112218031FC00F001F10164
:10003800F201F301F401F50120308400003085005D
:100048001230813100217E10200080318128270064
:10005800161E472820000F1A3328FC01FC0A8F1AA5
:1000680039280430F6007608FC000F1B3F280730BB
:10007800F6007608FC008F1B45280B30F600760842
:10008800FC0027001612961E602820000F1A502820
:100098000230F6007608FC008F1A56280530F60064
:1000A8007608FC000F1B5C280830F6007608FC0078
:1000B8008F1FFC0127009612161F7D2820000F1A9B
:1000C80069280330F6007608FC008F1A6F2806307E
:1000D800F6007608FC000F1B75280930F600760834
:1000E800FC008F1B7B280C30F6007608FC002700EC
:1000F8001613961F080096130800813106218031D7
:100108008B170F30F8007808FA0022001014FB0152
:1001180004307B02031885280130F8007B0A9528F3
:10012800F835890B94287808FF3AF9007908FA0518
:100138007A08F8000330F835FF3E031D9F2878350C
:100148007C0422008F000130F8007B0AAC28F835C7
:10015800890BAB287808F9007908FA047A08F800BE
:100168000330F835FF3E031DB52878357C048F0031
:1001780020000D18BC284130F900EE30F800F80BCB
:10018800C328F90BC32800000130F8007808FB07E2
:100198008C2822008D0108302400900022008C0158
:1001A800063023009000220090018F018E013F301D
:1001B80023008C000F308D008F01FF3024008D004C
:1001C80021008F010E309000FF308D00FF308E002F
:1001D800FF308C00951322009D01270016129612FD
:1001E80016139613151695161517951714129412BB
:1001F800141394138B150800640080010131890BD6
:10020800012900348031CD20813181310C21080051
:0E0218003830210099009A0198010800053441
:020000040001F9
:04000E00E2FFFFDE30
:00000001FF
