:08000000803102288731FD2F39
:100C540086314B2624001615080086314B262400C5
:100C64001614080086314B26240096140800F1005F
:100C740071088631532608003830210099009A0102
:100C840098010800F00086314B267008240091007A
:100C94000800240016081F39031D4B2E141D0800DC
:100CA4004B2EF0002000111E542E700823009A00D1
:100CB40008008631D126863186313E26863186313A
:100CC40064260800083023009F0090309D002430E3
:100CD4009E0056309B009C01080023009D162000B6
:100CE400911E712E23009D1C792E9D139D171908AA
:100CF400080021008E150E16803024009400283040
:100D04009500960131309200080086314B268631D9
:100D14002400961586314B26863124001108F000F4
:100D24007008F10086314B262400961616167108B9
:100D3400080086312F268631A0308631442686313C
:100D440072088631442686317108863144268631FC
:100D5400730886314426863186312A260800863176
:100D64002F268631A0308631442686317308863199
:100D740044268631720886314426863186313426EB
:100D84008631A130863144268631863187268631E4
:100D9400F4007408F50086312A267508080022003C
:100DA4008D0108302400900022008C0107302300BC
:100DB4009000220090018F018E013F3023008C00AF
:100DC40030308D00EF308F00F03024008D00EF3094
:100DD40021008F000F309000FF308D00BF308E0057
:100DE400FF308C00951722009D0108007430F60036
:100DF4007608FA007308F7007208F600F20A03197D
:100E0400F30A76088400770885000008F80078085B
:100E1400FB007B080319080025307B060319172FF4
:100E24007B08863139268631FC2EF901292F7A0870
:100E3400860087010108F6007608FB000230F60000
:100E44007608FA077B08863139268631FC2E73082A
:100E5400F7007208F600F20A0319F30A7608840010
:100E6400770885000008FB00003A03193E2F633A17
:100E74000319192F242FFC2E080086315B26873195
:100E840086317B26873120000D18A32F8230FD0088
:100E9400DD30FC00FC0B4C2FFD0B4C2F00322000EE
:100EA4000D1CA32F22000F167830F2008830F300B7
:100EB4008631F82687312000A201A3012308803A55
:100EC400FC008F307C02031D692FA130220203181D
:100ED4009A2F86316F268731FC007C082000A00001
:100EE4002308F2002208F1002008FC007C08F3002B
:100EF40086319B268731403020002006031D8A2F2F
:100F04000030F2008830F3008631F82687319A2FBA
:100F140001302000A2070030A33D2308803AFC00E2
:100F24008F307C02031D982FA1302202031C6B2FEB
:100F340022000F124930F2008830F3008631F8267F
:100F4400873120008D18452F8230FD00DD30FC00F4
:100F5400FC0BAA2FFD0BAA2F003220008D1C452F5D
:100F64006130F2008830F3008631F82687312000A2
:100F7400A401A5012508803AFC008F307C02031DE2
:100F8400C52FA13024020318F52F20002508F300F3
:100F94002408F2008631B1268731FC007C08200049
:100FA400A100403021060319F52F8E30F20088305D
:100FB400F3002108FC00FD017C08F4007D08F50025
:100FC4008631F826873101302000A4070030A53D82
:100FD4002508803AFC008F307C02031DF32FA130DA
:100FE4002402031CC72F3030F2008830F30086310E
:100FF400F8268731452F200087313F2F0D340A34DE
:10100400203420344C346F34733420344434613409
:1010140074346F3473342034463475346534723424
:101024006F346E342034673475346134723464340C
:10103400613464346F347334203463346F34723401
:10104400723465346334743461346D3465346E34AD
:101054007434653420340D340A3400340D340A34C5
:1010640020344C34653463347434753472346134EC
:101074002034663469346E3461346C3469347A34BF
:1010840061346434613420340D340A3400340D3452
:101094000A34203447347234613462346134633442
:1010A40069346F346E342034463469346E346134B8
:1010B4006C3469347A3461346434613400340D340A
:1010C4000A3420344C3465346334743475347234E3
:1010D4006134203469346E3469346334693461347E
:1010E4006434613420340D340A3400340D340A3449
:1010F4002034473472346134623461346334693483
:101104006F346E34203449346E3469346334693452
:0E1114006134643461340034253463340034B3
:020000040001F9
:04000E00E2FFFFDE30
:00000001FF
